:100000003FC059C058C057C056C055C054C053C057
:1000100052C067C050C04FC04EC04DC04CC04BC056
:100020004AC049C048C00000000037003400310019
:1000300000000000380035003200000000003600EB
:100040003300300004040404040404040202020225
:10005000020203030303030301020408102040808B
:100060000102040810200102040810200000000012
:100070000000000000030405000000000000000074
:1000800011241FBECFE5D4E0DEBFCDBF10E0A0E657
:10009000B0E0EAE8F3E002C005900D92A036B107A7
:1000A000D9F710E0A0E6B0E001C01D92A936B10773
:1000B000E1F75ED168C1A4CF8DE061E020D168EEA8
:1000C00073E080E090E061D08DE060E018D168EEF0
:1000D00073E080E090E059D008958DE061E0D0D0E9
:1000E00008951F920F920FB60F9211242F933F93F2
:1000F0004F935F936F937F938F939F93AF93BF9330
:100100002091640030916500409166005091670035
:1001100070916800DA01C9010296A11DB11D672F17
:100120006A5F6D3730F06D57DA01C9010396A11D82
:10013000B11D609368008093640090936500A09364
:100140006600B09367008091600090916100A0917B
:100150006200B09163000196A11DB11D8093600003
:1001600090936100A0936200B0936300BF91AF9140
:100170009F918F917F916F915F914F913F912F91BF
:100180000F900FBE0F901F9018959B01AC017FB789
:10019000F8948091600090916100A0916200B0910C
:1001A000630062B708B600FE05C06F3F19F0019604
:1001B000A11DB11D7FBFBA2FA92F982F8827860FA9
:1001C000911DA11DB11D63E0880F991FAA1FBB1FC0
:1001D0006A95D1F7BC012EC0FFB7F89480916000FA
:1001E00090916100A0916200B0916300E2B708B6FF
:1001F00000FE05C0EF3F19F00196A11DB11DFFBF24
:10020000BA2FA92F982F88278E0F911DA11DB11DE0
:10021000E3E0880F991FAA1FBB1FEA95D1F7861B41
:10022000970B885E9340C0F22150304040405040D0
:1002300068517C4F211531054105510569F6089536
:10024000789483B7826083BF83B7816083BF89B7A7
:10025000816089BF1EBC8EB582608EBD8EB5816007
:100260008EBD8FB581608FBD85B5846085BD85B538
:10027000806485BD329A319A309A379A1AB80895B7
:10028000CF93DF93482F50E0CA01885A9F4FFC015B
:1002900034914C5B5F4FFA018491882369F190E0BF
:1002A000880F991FFC01EA5DFF4FA591B491FC01F5
:1002B000E05DFF4FC591D491662351F42FB7F894B8
:1002C0008C91932F909589238C93888189230BC0DF
:1002D000623061F42FB7F8948C91932F9095892315
:1002E0008C938881832B88832FBF06C09FB7F89497
:1002F0008C91832B8C939FBFDF91CF910895482FD2
:1003000050E0CA0184599F4FFC012491CA01885AC8
:100310009F4FFC0194914C5B5F4FFA013491332362
:1003200031F1222381F0243039F0253049F0233097
:1003300051F48FB58F7702C08FB58F7D8FBD03C00D
:1003400085B58F7D85BDE32FF0E0EE0FFF1FE05DEB
:10035000FF4FA591B4912FB7F894662321F48C91A7
:100360009095892302C08C91892B8C932FBF08957F
:10037000CF93DF9365DFB1DEC0E0D0E09DDE209754
:0A038000E9F33EDEFBCFF894FFCF57
:00000001FF
