:100000000C9463000C948B000C948B000C948B006C
:100010000C948B000C948B000C948B000C948B0034
:100020000C948B000C9406040C948B000C94FD0231
:100030000C948B000C948B000C948B000C948B0014
:100040000C944A040C948B000C94BA050C9408068A
:100050000C948B000C948B000C948B000C948B00F4
:100060000C94AC010C948B000000000024002700CD
:100070002A0000000000250028002B0000000000DE
:1000800023002600290004040404040404040202DA
:100090000202020203030303030301020408102007
:1000A0004080010204081020010204081020000012
:1000B0000007000201000003040600000000000029
:1000C0000000BD00ED0611241FBECFEFD8E0DEBF5B
:1000D000CDBF11E0A0E0B1E0E8E0FFE002C0059094
:1000E0000D92A032B107D9F712E0A0E2B1E001C051
:1000F0001D92A73CB107E1F710E0C6ECD0E004C0C8
:100100002297FE010E947E07C23CD107C9F70E94D8
:1001100043070C9482070C9400002091410130E0C9
:1001200080914001281B3109C90108954091400187
:1001300080914101481718F02FEF3FEF0AC0E42FDC
:10014000F0E0E05EFE4F8081282F30E04F5F40936B
:100150004001C9010895E091400180914101E817F3
:1001600018F0EFEFFFEF06C0F0E0E05EFE4F808199
:10017000E82FF0E0CF0108950895109268011092E1
:10018000670188EE93E0A0E0B0E08093690190936E
:100190006A01A0936B01B0936C0184E091E09093AD
:1001A0006601809365010895CF92DF92EF92FF92EE
:1001B0000F931F93CF93DF937C016B018A01809192
:1001C00064018823A1F0C0E0D0E00DC0D701ED911B
:1001D000FC91D601AC0FBD1F0190F081E02DC7014D
:1001E0006C9109952196C017D10780F304C0CB010B
:1001F000642F0E943501C801DF91CF911F910F91AB
:10020000FF90EF90DF90CF900895DF93CF930F9200
:10021000CDB7DEB7FC016983809164018823C9F002
:1002200080916301803238F081E090E09383828393
:1002300020E030E015C080916201E82FF0E0EE5B35
:10024000FE4F998190838F5F809362018093630159
:1002500005C0CE01019661E00E94350121E030E049
:10026000C9010F90CF91DF910895482F613210F0AE
:1002700081E0089580917101843011F082E0089549
:100280006093BA01A9E9B1E0842F9C01F90102C091
:1002900081918D938E2F841B8617D0F380E0089573
:1002A000882349F01092DD011092DE011092DF01E7
:1002B0001092E00113C08091DD019091DE01A091C8
:1002C000DF01B091E0010196A11DB11D8093DD0118
:1002D0009093DE01A093DF01B093E0018091DD01F6
:1002E0009091DE01A091DF01B091E001805A964823
:1002F000A140B04010F480E008951092DD0110920A
:10030000DE011092DF011092E001109271018091E4
:10031000B9008E7F8093B9008091B9008D7F809362
:10032000B90088E48093B80085E48093BC0081E044
:10033000089585ED8093BC0081E00E94500105C0C6
:1003400080E00E945001882331F48091BC0084FD3C
:10035000F7CF1092710108951F920F920FB60F926E
:1003600011242F933F934F935F936F937F938F93BA
:100370009F93AF93BF93EF93FF938091B90090E069
:10038000887F90708036910509F4BFC08136910551
:10039000CCF58832910509F47BC089329105B4F41B
:1003A0008031910509F46FC0813191053CF40097CB
:1003B00009F40EC1089709F00FC165C08831910595
:1003C00009F466C0809709F007C177C080349105B1
:1003D00009F489C08134910544F48033910509F40E
:1003E0006EC0C89709F0F8C06EC08035910509F459
:1003F0006EC08835910509F47BC08834910509F0F9
:10040000EBC0E8C08839910509F4D8C08939910555
:10041000ECF48837910509F478C0893791054CF4DC
:100420008836910509F471C08037910509F0D4C070
:100430006CC08838910509F4C1C08039910509F470
:100440006AC08038910509F0C7C065C0803B91053E
:1004500009F48CC0813B91054CF4803A910509F474
:100460006CC0883A910509F0B7C080C0803C910506
:1004700009F4A8C0883C910509F4A4C0883B910503
:1004800009F0AAC088C0809172018093BB0013C09C
:100490009091970180919801981708F09BC09091D6
:1004A0009701E92FF0E0E958FE4F80818093BB006F
:1004B0009F5F9093970185EC82C080E201C080E34A
:1004C0008093DC0187C088E38093DC017BC080914E
:1004D00097019091BB00E82FF0E0E958FE4F908320
:1004E0008F5F80939701909197018091980163C0ED
:1004F000809197019091BB00E82FF0E0E958FE4F02
:1005000090838F5F8093970165C083E08093710132
:100510001092DB01D0CF8091DB01803208F04EC019
:100520008091DB019091BB00E82FF0E0E554FE4F95
:1005300090838F5F8093DB01BECF8091DB0180329F
:1005400030F4E091DB01F0E0E554FE4F10820E94B0
:1005500099016091DB01E0917501F09176018BEBDF
:1005600091E070E009951092DB012CC084E080934B
:1005700071011092B9011092BA01E0917301F091EA
:10058000740109958091BA01882329F481E0809350
:10059000BA01109299019091B901E92FF0E0E75664
:1005A000FE4F80818093BB009F5F9093B901909133
:1005B000B9018091BA01981708F47DCF85E880933E
:1005C000BC000AC085EC8093BC001092710104C08D
:1005D0001092DC010E949901FF91EF91BF91AF91C0
:1005E0009F918F917F916F915F914F913F912F914B
:1005F0000F900FBE0F901F9018951F920F920FB67D
:100600000F9211242F933F934F935F936F937F9398
:100610008F939F93AF93BF93EF93FF9380910602C5
:1006200087FF05C010928500109284002BC0209196
:100630000602332727FD30958091E10190E02817CD
:10064000390704F580910602992787FD9095FC01F2
:10065000EE0FFF1FE80FF91FEE51FE4F808186FF5E
:1006600011C080910602992787FD9095FC01EE0F3D
:10067000FF1FE80FF91FEE51FE4F80818F7360E07E
:100680000E946505809106028F5F8093060220918B
:100690000602332727FD30958091E10190E028176D
:1006A00039070CF04EC0809106028C300CF049C026
:1006B000209184003091850080910602992787FD62
:1006C0009095FC01EE0FFF1FE80FF91FEE51FE4F52
:1006D00081819281280F391F3093890020938800EF
:1006E00080910602992787FD9095FC01EE0FFF1F70
:1006F000E80FF91FEE51FE4F808186FF2BC08091DD
:100700000602992787FD9095FC01EE0FFF1FE80F69
:10071000F91FEE51FE4F80818F7361E00E946505E5
:1007200019C080E49CE905C0809184009091850007
:10073000049690938900809388008FEF809306023F
:1007400009C08091840090918500049680549C4952
:1007500040F3EACFFF91EF91BF91AF919F918F91BD
:100760007F916F915F914F913F912F910F900FBEAD
:100770000F901F90189580910D0290910E02A091FC
:100780000F02B09110020196A11DB11D80930D02C0
:1007900090930E02A0930F02B093100280910D026D
:1007A00090910E02A0910F02B091100220910702C9
:1007B000309108024091090250910A028217930772
:1007C000A407B50710F1809111028823F1F481E0AC
:1007D0008093110280910D0290910E02A0910F0260
:1007E000B0911002821B930BA40BB50B80930D02EA
:1007F00090930E02A0930F02B0931002E0910B02AF
:10080000F0910C0209951092110208951F920F9217
:100810000FB60F9211242F933F934F935F936F93D3
:100820007F938F939F93AF93BF93EF93FF938091A9
:100830001202909113028093B2000E94BB03FF91B9
:10084000EF91BF91AF919F918F917F916F915F9148
:100850004F913F912F910F900FBE0F901F901895C1
:100860008DE061E00E94650568EE73E080E090E055
:100870000E9492048DE060E00E94650568EE73E0DE
:1008800080E090E00E94920408958DE061E00E9473
:10089000260508951F920F920FB60F9211242F93E1
:1008A0003F938F939F93AF93BF9380911802909142
:1008B0001902A0911A02B0911B0230911C020196FC
:1008C000A11DB11D232F2D5F2D3720F02D5701962F
:1008D000A11DB11D20931C02809318029093190250
:1008E000A0931A02B0931B028091140290911502FA
:1008F000A0911602B09117020196A11DB11D80931F
:10090000140290931502A0931602B0931702BF91A0
:10091000AF919F918F913F912F910F900FBE0F90AC
:100920001F9018959B01AC017FB7F8948091140239
:1009300090911502A0911602B091170266B5A89B7E
:1009400005C06F3F19F00196A11DB11D7FBFBA2FE1
:10095000A92F982F8827860F911DA11DB11D62E038
:10096000880F991FAA1FBB1F6A95D1F7BC012DC024
:10097000FFB7F8948091140290911502A09116028D
:10098000B0911702E6B5A89B05C0EF3F19F001969C
:10099000A11DB11DFFBFBA2FA92F982F88278E0F39
:1009A000911DA11DB11DE2E0880F991FAA1FBB1F59
:1009B000EA95D1F7861B970B885E9340C8F22150C9
:1009C00030404040504068517C4F21153105410571
:1009D000510571F60895789484B5826084BD84B51C
:1009E000816084BD85B5826085BD85B5816085BD2A
:1009F000EEE6F0E0808181608083E1E8F0E0108243
:100A0000808182608083808181608083E0E8F0E083
:100A1000808181608083E1EBF0E08081846080836D
:100A2000E0EBF0E0808181608083EAE7F0E08081A4
:100A30008460808380818260808380818160808304
:100A40008081806880831092C1000895CF93DF93E6
:100A5000482F50E0CA0186569F4FFC0134914A57F7
:100A60005F4FFA018491882369F190E0880F991F04
:100A7000FC01E859FF4FA591B491FC01EE58FF4FDE
:100A8000C591D491662351F42FB7F8948C91932F8C
:100A9000909589238C93888189230BC0623061F4FF
:100AA0002FB7F8948C91932F909589238C938881FC
:100AB000832B88832FBF06C09FB7F8948C91832B1C
:100AC0008C939FBFDF91CF910895482F50E0CA01CA
:100AD00082559F4FFC012491CA0186569F4FFC010D
:100AE00094914A575F4FFA013491332309F440C07F
:100AF000222351F1233071F0243028F42130A1F069
:100B0000223011F514C02630B1F02730C1F0243066
:100B1000D9F404C0809180008F7703C08091800059
:100B20008F7D8093800010C084B58F7702C084B51C
:100B30008F7D84BD09C08091B0008F7703C0809104
:100B4000B0008F7D8093B000E32FF0E0EE0FFF1F29
:100B5000EE58FF4FA591B4912FB7F894662321F476
:100B60008C919095892302C08C91892B8C932FBFF7
:100B7000089508951F920F920FB60F9211242F938C
:100B80003F934F938F939F93EF93FF938091C00078
:100B900082FD1DC04091C60020915D0230915E0231
:100BA0002F5F3F4F2F73307080915F0290916002F2
:100BB0002817390771F0E0915D02F0915E02E35E63
:100BC000FD4F408330935E0220935D0202C080910E
:100BD000C600FF91EF919F918F914F913F912F917F
:100BE0000F900FBE0F901F901895E091B102F091F9
:100BF000B202E05CFF4F8191919120813181821B93
:100C0000930B8F739070892B11F00E94B905089592
:100C10001F920F920FB60F9211242F933F938F9331
:100C20009F93EF93FF932091A1023091A2028091B4
:100C3000A3029091A4022817390731F48091C100D2
:100C40008F7D8093C10014C0E091A302F091A402B3
:100C5000EF59FD4F20818091A3029091A40201964B
:100C60008F7390709093A4028093A3022093C60088
:100C7000FF91EF919F918F913F912F910F900FBE18
:100C80000F901F901895DC011C96ED91FC911D971B
:100C9000E05CFF4F2191319180819181281B390BBC
:100CA0002F733070C9010895DC011C96ED91FC9101
:100CB0001D97E05CFF4F20813181E054F040DF015F
:100CC000AE5BBF4F8D919C9111972817390719F48E
:100CD0002FEF3FEF07C08D919C91E80FF91F8081A6
:100CE000282F30E0C9010895DC011C96ED91FC919C
:100CF0001D97E05CFF4F20813181E054F040DF011F
:100D0000AE5BBF4F8D919C9111972817390719F44D
:100D10002FEF3FEF10C08D919C911197E80FF91FB5
:100D200020818D919C91119701968F7390701196EF
:100D30009C938E9330E0C9010895DC0191968C91CB
:100D40009197882339F05496ED91FC9155978081C5
:100D500086FFF9CF91961C920895CF93DF93EC0113
:100D6000EE85FF85E05CFF4F20813181E054F0404B
:100D70002F5F3F4F2F733070DF01AE5BBF4F8D9100
:100D80009C91119728173907D1F3E05CFF4F8081C0
:100D90009181E054F040E80FF91F6083EE85FF85F4
:100DA000E05CFF4F31832083EE89FF89208181E061
:100DB00090E00F8C02C0880F991F0A94E2F7282B4D
:100DC000208381E089A3EC89FD8980818064808310
:100DD00081E090E0DF91CF9108951092A8021092E7
:100DE000A70288EE93E0A0E0B0E08093A902909380
:100DF000AA02A093AB02B093AC0284E191E090937D
:100E0000A6028093A5028DE192E09093B2028093B6
:100E1000B10281E692E09093B4028093B30285EC34
:100E200090E09093B6028093B50284EC90E09093AA
:100E3000B8028093B70280EC90E09093BA0280935E
:100E4000B90281EC90E09093BC028093BB0282ECEB
:100E500090E09093BE028093BD0286EC90E0909368
:100E6000C0028093BF0284E08093C10283E080933C
:100E7000C20287E08093C30285E08093C40281E0D0
:100E80008093C5020895CF93DF930E94EB040E94E4
:100E90004504C5EFD5E00E9430042097E1F30E949D
:100EA000F505F9CFCF92DF92EF92FF920F931F9348
:100EB000CF93DF937C016B018A01C0E0D0E00FC0CB
:100EC000D6016D916D01D701ED91FC910190F081FA
:100ED000E02DC7010995C80FD91F01501040011519
:100EE000110571F7CE01DF91CF911F910F91FF9006
:100EF000EF90DF90CF900895EE0FFF1F0590F491D3
:080F0000E02D0994F894FFCFE5
:100F0800000000000501D4008D009600AB00BC0075
:100F180000000000AD0652074306740654069D06FD
:00000001FF
